:100000000C942A000C9447000C9447000C94470071
:100010000C9447000C9447000C9447000C94470044
:100020000C9447000C9447000C9447000C94470034
:100030000C9447000C9447000C9447000C94470024
:100040000C9447000C9447000C9447000C94470014
:100050000C94470011241FBECFE5D8E0DEBFCDBF12
:1000600010E0A0E6B0E0E8EFF9E002C005900D92E4
:10007000A23AB107D9F720E0A2EAB0E001C01D9290
:10008000AE3AB207E1F70E94B7010C94FA040C945F
:1000900000009BB39F70282F207F922B9BBBDB9887
:1000A000DA9A32E03A95F1F700C0DA98EFE8F1E039
:1000B0003197F1F700C000002BB32F70F0E18F9F54
:1000C000C0011124822B8BBBDA9A32E03A95F1F70A
:1000D00000C0DA988FE99FE00197F1F700C00000B7
:1000E00008959BB39F70282F207F922B9BBBDB9A98
:1000F000DA9A32E03A95F1F700C0DA98EFE8F1E0E9
:100100003197F1F700C000002BB32F70F0E18F9F03
:10011000C0011124822B8BBBDA9A32E03A95F1F7B9
:1001200000C0DA988FE99FE00197F1F700C0000066
:100130000895CF93DF93EC018881882331F02196D5
:100140000E94710089918111FBCFDF91CF910895B9
:100150008A30910524F4805D0E94710008958A30F0
:10016000910521F481E40E94710008958B3091057E
:1001700021F482E40E94710008958C30910521F4ED
:1001800083E40E94710008958D30910521F484E488
:100190000E94710008958E30910521F485E40E943B
:1001A000710008950F9719F486E40E947100089574
:1001B00081E00E9449008FE99FE00197F1F700C0BC
:1001C000000080E80E9449000895BF92CF92DF921C
:1001D000EF92FF920F931F93CF93DF930E94D8006B
:1001E00084E690E00E94990080EC0E94490081E73B
:1001F00090E00E949900C0E0D0E000E010E00F2EF7
:10020000FCE3CF2ED12CF02D0F2EFAE0EF2EF12CA7
:10021000F02D80EC0E944900CE0101962FE737EEC9
:1002200041E0215030404040E1F700C00000B601FD
:100230000E941304600F711FC82FD92FCB01B60184
:100240000E9413048C01B7010E941304B82E80E3AE
:10025000860F0E94710080E38B0D0E9471008AE37B
:100260000E947100CE01B7010E941304B82E80E3F2
:10027000860F0E94710080E38B0D0E947100003197
:10028000110509F45FC08FEC97E00197F1F700C00A
:100290000000BFCF0E948704907899231CF4019737
:1002A0009F6F019682BB87E790E00E949900C2B3DE
:1002B00082B382958F7090E00E94A8008C2F8F707F
:1002C00090E00E94A80080E20E9471009FEF29E662
:1002D00038E1915020403040E1F700C0000001506B
:1002E0001109C1F680EC0E94490003E010E00E9471
:1002F0008704907899231CF401979F6F019682BB25
:1003000087E790E00E949900C2B382B382958F7014
:1003100090E00E94A8008C2F8F7090E00E94A800AF
:1003200080E20E9471004FEF89E698E141508040E1
:100330009040E1F700C0000001501109C1F60E9491
:10034000B7010BC08FEC97E00197F1F700C00000F8
:100350000E94D80003E010E09DCFDF91CF911F9164
:100360000F91FF90EF90DF90CF90BF9008958CEFAA
:100370008ABB90EF97BB9FEF94BB91BB90EC97B972
:1003800097E896B98ABB8FE39CE90197F1F700C023
:10039000000082E00E94490088E20E9449008CE04F
:1003A0000E94490086E00E94490081E00E944900C5
:1003B000EFE9FFE03197F1F700C000000E94D8009C
:1003C0008AE790E00E94990080EC0E9449000E9418
:1003D000680390E09093A3008093A2000E946803BA
:1003E0002091A2003091A300A901440F551F220FB4
:1003F000331F220F331F220F331F240F351F280FE7
:10040000311D3093AD002093AC000E94D8008FE7DF
:1004100090E00E94990080EC0E9449000E946803CD
:1004200090E09093A9008093A8000E946803209117
:10043000A8003091A900A901440F551F220F331FB6
:10044000220F331F220F331F240F351F280F311D9A
:100450003093A5002093A4000E94D80084E890E087
:100460000E94990080EC0E9449000E94680390E07D
:100470009093A7008093A6000E9468032091A60095
:100480003091A700A901440F551F220F331F220FDF
:10049000331F220F331F240F351F280F311D3093B8
:1004A000AB002093AA000E94D80089E890E00E9447
:1004B000990080EC0E94490087E990E00E94990031
:1004C000C2EAD0E08881805D0E9471008881880F37
:1004D000982F990F990F890F9091AC00905D981B00
:1004E000892F0E9471008AE990E00E949900C8EA71
:1004F000D0E08881805D0E9471008881880F982FEC
:10050000990F990F890F9091A400905D981B892FE6
:100510000E9471008EE990E00E949900C6EAD0E046
:100520008881805D0E9471008881880F982F990FC3
:10053000990F890F9091AA00905D981B892F0E94B6
:10054000710020E030E0C12CD12CE12CF12C0F2ED9
:10055000F4E6AF2EB12CF02D0F2EF4E68F2EF02DF9
:1005600010EF0F2EF0EE9F2EF02D6894222424F829
:100570000F2EF7E03F2EF02D6894442442F85524C6
:1005800053940F2EFAE06F2EF02D00ED689477242F
:1005900073F801C09E018FE39CE90197F1F700C059
:1005A0000000369A3699FECF84B145B190E0942B85
:1005B000EC01DD230CF42396D595C795D595C79509
:1005C0008091A4009091A500B5010E941304A90197
:1005D0004C0F5D1F649FC001659F900D749F900D2F
:1005E0001124E80EF91E8091AA009091AB00889E1C
:1005F000A001899E500D1124FE01E21BF30B4E9FBA
:10060000C0014F9F900D5E9F900D1124C80ED91E02
:100610009091AC008E2D8C0DC99F800D112485BB4F
:1006200018BB98BA8FE99FE00197F1F700C000006E
:10063000B09902C0832D01C0822DB19B842DB29B45
:10064000852DB39B862D18BB08BBEFE9FFE03197E2
:10065000F1F700C00000B09B872DB19B85E0B29BF5
:1006600082E0B39B80E018BB90EB98BBEFE9FFE022
:100670003197F1F700C00000B09B89E0B19B86E0A4
:10068000B29B83E0B39B8BE018BB90E798BBEFE98C
:10069000FFE03197F1F700C00000B09B8CE0B19B08
:1006A0008DE0B29B12C0B39B0BC018BB8A3011F413
:1006B0000E94B7018B3009F06DCF0E94E5006ACF30
:1006C00018BB68CF18BB8EE0F5CFB39BF9CFFACF3C
:1006D0007F928F929F92AF92BF92CF92DF92EF92D2
:1006E000FF920F931F93CF93DF9380EF40EE6894B8
:1006F000BB24B4F80F2EF7E0CF2EF02D6894DD2444
:10070000D2F8EE24E3940F2EFAE0FF2EF02D30ED18
:1007100008E015E06894992491F8812C20EB0F2EC5
:10072000F9E07F2EF02DF6E0E3E07BE090E76CE06F
:100730005DE00F2EFEE0AF2EF02D88BB48BBAFE989
:10074000BFE01197F1F700C00000B09902C0CC2DB6
:1007500001C0CB2DB19BCD2DB29BCE2DB39BCF2D08
:1007600088BB38BBAFE9BFE01197F1F700C00000CC
:10077000B09BC02FB19BC12FB29BC92DB39BC82D7D
:1007800088BB28BBAFE9BFE01197F1F700C00000BC
:10079000B09BC72DB19BCF2FB29BCE2FB39BC72F42
:1007A00088BB98BBAFE9BFE01197F1F700C000002C
:1007B000B09BC62FB19BC52FB29B1DC0B39B14C06D
:1007C00088BBCA3011F40E94B701CB3019F40E94E3
:1007D000E50003C0C03109F4B0CFCA3078F480E33B
:1007E0008C0F0E9471000AC080EF88BBCFE0F5CF6C
:1007F00088BBCA2DEFCFB39BF7CFFACF8FE493EC32
:100800000197F1F700C000008C2FDF91CF911F916D
:100810000F91FF90EF90DF90CF90BF90AF909F909F
:100820008F907F90089597FB072E16F4009407D0C1
:1008300077FD09D00E94270407FC05D03EF490956F
:1008400081959F4F0895709561957F4F0895AA1BDC
:10085000BB1B51E107C0AA1FBB1FA617B70710F0AB
:10086000A61BB70B881F991F5A95A9F780959095DD
:10087000BC01CD0108958F929F92AF92BF92CF920B
:10088000DF92EF92FF92CF93DF93EC016881798141
:100890008A819B81611571058105910521F464E2CE
:1008A00079ED8BE597E02DE133EF41E050E00E94D8
:1008B000970449015A019B01AC01A7EAB1E40E94E7
:1008C000B6046B017C01ACEEB4EFA50194010E946B
:1008D000C404DC01CB018C0D9D1DAE1DBF1DB7FFF7
:1008E00003C00197A109B04888839983AA83BB8379
:1008F0009F77DF91CF91FF90EF90DF90CF90BF90E7
:10090000AF909F908F9008950E943B04089580E6D9
:1009100090E00E943B040895A0E0B0E08093600066
:1009200090936100A0936200B09363000895052E38
:1009300097FB1EF400940E94AE0457FD07D00E945E
:10094000C90407FC03D04EF40C94AE0450954095B6
:10095000309521953F4F4F4F5F4F0895909580956B
:10096000709561957F4F8F4F9F4F08950E94EB04C4
:10097000A59F900DB49F900DA49F800D911D1124F3
:100980000895B7FF0C94B6040E94B604821B930B23
:100990000895A1E21A2EAA1BBB1BFD010DC0AA1FC0
:1009A000BB1FEE1FFF1FA217B307E407F50720F0D8
:1009B000A21BB30BE40BF50B661F771F881F991F53
:1009C0001A9469F760957095809590959B01AC019C
:1009D000BD01CF010895A29FB001B39FC001A39FA5
:1009E000700D811D1124911DB29F700D811D112468
:0809F000911D0895F894FFCF5A
:1009F8000100000054696D6572204D6F6465203AEE
:100A08000030303A3030003078004B70203A004BDC
:100A180069203A004B64203A0050494420436F6EE5
:100A280074726F6C203A00503D002C493D002C44F4
:020A38003D007F
:00000001FF
